S01200005461736B3543636F64652E737265636C
S11300000C9434000C9440000C943E000C943E007C
S11300100C943E000C943E000C943E000C943E0064
S11300200C943E000C943E000C943E000C943E0054
S11300300C943E000C943E000C943E000C943E0044
S11300400C943E000C943E000C943E000C943E0034
S11300500C943E000C943E000C943E000C943E0024
S11300600C943E000C943E0011241FBECFEFD8E048
S1130070DEBFCDBF0E945C000C9466000C940000AF
S11300801F920F920FB60F9211242F938F939F9369
S113009084E085B92FE38DE093E0215080409040C7
S11300A0E1F700C0000015B89F918F912F910F9038
S11300B00FBE0F901F90189581E08DBB8CBB83E021
S11300C08093690078948FEF84B9FFCFF894FFCFC1
S9030000FC
