:100000000C9434000C943E000C943E000C943E0082
:100010000C943E000C943E000C943E000C943E0068
:100020000C943E000C943E000C943E000C943E0058
:100030000C943E000C943E000C943E000C943E0048
:100040000C943E000C943E000C943E000C943E0038
:100050000C943E000C943E000C943E000C943E0028
:100060000C943E000C943E0011241FBECFEFD8E04C
:10007000DEBFCDBF0E9440000C9452000C940000E3
:100080008FEF84B91AB84A9B0BC085B92FE33DE0C6
:1000900093E0215030409040E1F700C00000F3CFE2
:0800A00015B8F1CFF894FFCF71
:00000001FF
