S01200005461736B3443636F64652E737265636D
S11300000C9434000C943E000C943E000C943E007E
S11300100C943E000C943E000C943E000C943E0064
S11300200C943E000C943E000C943E000C943E0054
S11300300C943E000C943E000C943E000C943E0044
S11300400C9440000C943E000C943E000C943E0032
S11300500C943E000C943E000C943E000C943E0024
S11300600C943E000C943E0011241FBECFEFD8E048
S1130070DEBFCDBF0E9454000C945F000C940000BE
S11300801F920F920FB60F9211248F939F9395B1E5
S113009084E0892785B98CE086BD9F918F910F906C
S11300A00FBE0F901F90189584E084B981E080936F
S11300B06E0085E085BD8CE086BD7894FFCFF89412
S10500C0FFCF6C
S9030000FC
